:020000040800F2
:10000000005000207D150008BD150008BD15000832
:10001000BD150008BD150008BD1500080000000052
:10002000000000000000000000000000D1120008E5
:10003000BD15000800000000291300086D1300081A
:10004000BD150008BD150008BD150008BD15000848
:10005000BD150008BD150008BD150008BD15000838
:10006000BD150008BD150008BD150008BD15000828
:10007000BD150008BD150008BD150008BD15000818
:10008000BD150008BD150008BD150008BD15000808
:10009000BD150008BD150008BD150008BD150008F8
:1000A000BD150008BD150008BD150008BD150008E8
:1000B000BD150008BD150008BD150008BD150008D8
:1000C000BD150008BD150008BD150008BD150008C8
:1000D000BD150008BD150008BD150008BD150008B8
:0C00E000BD150008BD150008BD15000886
:1000EC0070B5860747D0541E002A3ED00346CAB2CC
:1000FC0001E0013C39D303F8012B9D07F9D1032C06
:10010C002CD9CDB205EB05250F2C1A4605EB054570
:10011C0034D9A4F1100C2CF00F0603F1100EB644D8
:10012C004FEA1C1CC2E90055C2E902551032724557
:10013C00F8D10CF1010214F00C0F03EB021204F0D5
:10014C000F0C13D0ACF1040323F00303043313445A
:10015C0042F8045B9342FBD10CF003042CB1C9B2FE
:10016C001C4403F8011BA342FBD170BD644613462B
:10017C00002CF4D1F9E703461446C0E7A446E1E7A6
:10018C00844641EA000313F0030349D1403A23D3D8
:10019C000B6803604B6843608B688360CB68C360FB
:1001AC000B6903614B6943618B698361CB69C361E3
:1001BC000B6A03624B6A43628B6A8362CB6AC362CB
:1001CC000B6B03634B6B43638B6B8363CB6BC363B3
:1001DC0040304031403ADBD230320BD30B680360F5
:1001EC004B6843608B688360CB68C3601030103100
:1001FC00103AF3D20C3205D351F8043B40F8043BCF
:10020C00043AF9D2043208D0D2071CBF11F8013BD2
:10021C0000F8013B01D30B8803806046704700BF98
:10022C00082A13D38B07B1D010F00303AED0C3F15F
:10023C000403D21ADB071CBF11F8013B00F8013B89
:10024C00A4D331F8023B20F8023B9FE7043AD9D300
:10025C00013A11F8013B00F8013BF9D20B7803701D
:10026C004B7843708B7883706046704708B50F4DA0
:10027C000F4C4FF0FF31286800F064FFE3684FF437
:10028C00FA7043F00203E36000F0F6FBE3684FF40E
:10029C00FA7023F00203E36000F0EEFB0023286801
:1002AC001A46194600F0D1FEE3E700BF0800002013
:1002BC00000801400A2008B500F0DEFB0E4D0F4C83
:1002CC004FF0FF31286800F03DFFE3684FF4FA70FF
:1002DC0043F00103E36000F0CFFBE3684FF4FA70E6
:1002EC0023F00103E36000F0C7FB002328681A46E3
:1002FC00194600F0AAFEE3E70800002000080140C0
:10030C0038B50A4C0A4D0523E26882F00402E2601B
:10031C0029682A68521AB2F5FA7FFAD3013BF3D155
:10032C004FF4FA7000F0A8FBEDE700BF00080140A5
:10033C0004000020024A136801331360704700BFA9
:10034C000400002007B52A4A00219369012043F0DC
:10035C0014039361274B0024D3F8002822F00F02DA
:10036C00C3F80028D3F8002842F00202C3F8002892
:10037C00D3F8002822F0F002C3F80028D3F80028A4
:10038C0042F02002C3F80028D3F8002822F470624F
:10039C00C3F80028D3F8002842F40072C3F80028F0
:1003AC00032200F030FE144B186000231A46194645
:1003BC0000F04BFE03238022CDE900340F49234685
:1003CC000F4800F0C9F8012380220E4900930E4813
:1003DC002346019400F0C0F8022380220B490093BD
:1003EC000B482346019400F0B7F800F095F9FEE7AE
:1003FC00001002400000014008000020BE1500085B
:10040C00C1020008C615000879020008CD150008C5
:10041C000D030008FEE700002DE9F843224B234CA6
:10042C001D68234B0646D3F80080224B0F46D3F8A9
:10043C0000902068043000F026FD40B922681E4967
:10044C00D06A01220B68824023EA02030B60731C02
:10045C0014D19FB1194B21685A688A609068216841
:10046C00C8602168043141602168043191602268C0
:10047C0053611A6801321A60BDE8F8832368216859
:10048C00AD195D6001F1040104D34846BDE8F843A1
:10049C0000F0E2BC404600F0DFFC094B1A68AA42AF
:1004AC0088BF1D60E8E700BF300000200C01002071
:1004BC007C000020780000202C0000203800002058
:1004CC0014000020064A13681968064B19B94FF03E
:1004DC00FF321A6070471268D2681268F9E700BFE1
:1004EC007C00002014000020F8B50E4C0E4F0F4E6F
:1004FC00236803B9F8BD00F0F7FEFB68DD68281D22
:10050C0000F0C1FC3368013B33602368013B23607E
:10051C0000F0FAFE286B00F0E1FF284600F0DEFF49
:10052C00E6E700BF4C000020500000203400002003
:10053C004FF0E0244FF0805508B5064EFFF7D4FF7E
:10054C003368012BFAD9C4F8045DBFF34F8FBFF3A6
:10055C006F8FF3E7A80000202DE9F04796000746BF
:10056C0030460D469846DDF8249000F03BFF82465D
:10057C0018B94FF0FF30BDE8F087542000F032FF7F
:10058C000446002800F0938054220021FFF7A8FDB8
:10059C003246A5215046C4F830A0FFF7A1FD236BCD
:1005AC00043E1E4426F007066DB16B1E04F13302A7
:1005BC000F3513F8011F02F8011F09B1AB42F8D136
:1005CC00002384F84330089D04F1040A042D28BF4D
:1005DC0004255046E562656400F03BFCC5F1050559
:1005EC0004F1180000F035FC4246394630462461CF
:1005FC00A561646200F054FE2060B9F1000F01D0D7
:10060C00C9F8004000F070FE364B374E1A68374F71
:10061C0001321A603568002D4DD134601B68012BF6
:10062C001FD1B8464046013500F008FC052D08F1F5
:10063C001408F7D1DFF8B8802E4D404600F0FEFBD1
:10064C00284600F0FBFB2C4800F0F8FB2B4800F090
:10065C00F5FB2B4800F0F2FB2A4BC3F800802A4B29
:10066C001D602A4A2A491368086801331360012265
:10067C00E36A9A4002430A6014225343F9184A6809
:10068C009068A260E060C0F804A0C2F808A0FA5814
:10069C0061610132FA5000F037FE1E4B1B6823B12A
:1006AC003368DA6AE36A9A4210D3012063E7504652
:1006BC0000F014FF5DE7174B1A68E36A002AD0D1EB
:1006CC003268D26A9A4298BF3460CAE74FF0E0238E
:1006DC004FF08052C3F8042DBFF34F8FBFF36F8FD1
:1006EC00E3E700BF340000200C010020A80000202C
:1006FC0094000020800000206400002050000020A6
:10070C00380000207C000020780000201800002019
:10071C002C0000202800002010B586B010220021EB
:10072C0002A8FFF7DDFC144A02AB12F8014B03F8E8
:10073C00014B002CF9D1114B8022CDE9004310481C
:10074C00234602A9FFF708FF012811D14FF05003EF
:10075C0083F31188BFF36F8FBFF34F8F4FF0FF32CE
:10076C00084B1A60084B1860084B1C6000F01AFE0E
:10077C00074B1B6806B010BDD415000810000020F4
:10078C003D05000814000020280000203000002047
:10079C00DC150008024A136801331360704700BF70
:1007AC000C0000202DE9F84F554B1B68002B40F036
:1007BC009E80544B18680130186058B9524A534BFC
:1007CC0011681C681460524A196013680133136075
:1007DC00FFF778FE4F4D00242B684F4A9842DFF804
:1007EC003CC115D21421DCF80030DB6A4B43D358E2
:1007FC00022B4B4B28BF01241B680BB9FFF79AFD4A
:10080C00484B1B68002B18BF01242046BDE8F88F0D
:10081C003D4F454E3B681B681BB94FF0FF332B60B7
:10082C00E0E73B68DB68DB685968884201D22960E5
:10083C00D8E7D3F81480D3E90219C1F80890C9F8A5
:10084C000410D8F8041003F1040E71454FF00001A8
:10085C0008BFC8F804905961D8F800100139C8F8DD
:10086C000010D3F82880B8F1000F15D0D3E9071980
:10087C00C1F80890C9F80410D8F8041003F1180A4C
:10088C0051454FF0000108BFC8F804909962D8F8A0
:10089C0000100139C8F800104FF00108D96AD6F8D9
:1008AC00009008FA01F848EA0908C6F800804FF0F1
:1008BC00140808FB01F802EB080ADAF80490D9F8DE
:1008CC0008B0C3F80890C3F80CB0CBF804E0C9F832
:1008DC0008E0C3F814A052F80830013342F808308D
:1008EC00DCF80030DB6A994288BF012492E70C4A9D
:1008FC000024136801331360FFF71CFD85E700BF6C
:10090C000C000020300000207C000020780000202B
:10091C001C00002014000020A80000200C01002066
:10092C0024000020200000202C0000202DE9F84F8E
:10093C0000F0DAFC484B1A68013A1A601B682BB1BC
:10094C00002400F0E1FC2046BDE8F88F434A126811
:10095C00002AF5D0012514264148424C424A434F07
:10096C00DFF80CC153E0C368DB68D3F828E0D3E9A7
:10097C000718C1F80880C8F80410DEF8041003F159
:10098C00180949454FF0000108BFCEF80480996260
:10099C00DEF800100139CEF80010D3F814E0D3E9DA
:1009AC000218C1F80880C8F80410DEF8041003F12E
:1009BC0004094945DEF8001008BFCEF8048001395F
:1009CC00CEF80010D3F82CE0D4F8008005FA0EF124
:1009DC0041EA080106FB0EF802EB080A2160DAF87E
:1009EC000410D1F808B09960C3F80CB0CBF804909F
:1009FC00C1F8089052F80810C3F814A0013142F85D
:100A0C0008103968C96A8E4501D9CCF800500168C4
:100A1C000029A8D10BB1FFF755FD164D2C6844B138
:100A2C000127134EFFF7BEFE00B13760013CF9D130
:100A3C002C600F4B1B68002B82D00C4B4FF080525C
:100A4C001B684FF0E023C3F8042DBFF34F8FBFF3A7
:100A5C006F8F012475E700BF0C00002034000020CC
:100A6C00640000202C000020A80000200C010020B5
:100A7C00200000202400002008B550B94FF0E023DE
:100A8C004FF08052C3F8042DBFF34F8FBFF36F8F1D
:100A9C0008BD0021FFF77EFEFFF7BEFCFFF746FF07
:100AAC000028EBD0F4E70000214B70B51A68214BFD
:100ABC0012B101221A6070BD1F4C1A6023682168A4
:100ACC0022680968126B1B6B91420FD91A68B2F13C
:100ADC00A53F0BD15A68B2F1A53F07D19A68B2F184
:100AEC00A53F03D1DB68B3F1A53F04D02168206892
:100AFC003431FFF78FFC114B1B68B3FA83F31425C9
:100B0C00DBB2C3F11F0305FB03F20D4988184668DD
:100B1C00083276680A44964205FB031108BFC26886
:100B2C00466008BF42604B68DB6823602368C2E7FD
:100B3C000C000020200000200C0100202C000020C4
:100B4C00A800002010B50C46054B1968183100F0B0
:100B5C0083F92046BDE810400121FFF75DBC00BFC2
:100B6C000C010020C368F0B5DB689A6AD3E9070171
:100B7C0081604860506803F11804A04208BF5160BE
:100B8C00002199621168013911601E4AD96A1268F4
:100B9C00002A2AD1D3E902405A69A0604460546803
:100BAC001D1DAC4208BF5060106801381060012256
:100BBC0015488A4004682243026014224A431348B1
:100BCC0086187468A7689C60DF607D60A5605E61B4
:100BDC008358013383500E4B1B68DB6A994285BFE7
:100BEC0001200C4B00201860F0BD0B4A5068856842
:100BFC00D8611D626C6084609A6213680133136063
:100C0C00E9E700BF0C0000202C000020A800002009
:100C1C000C0100202000002064000020034B1B6806
:100C2C000360034B1B684360704700BF1C0000202F
:100C3C003000002070B50D46044600F055FB0F4BFC
:100C4C0019682B685A1C17D00D4826680068626812
:100C5C00864208D08A4206D8002301242B6000F07B
:100C6C0053FB204670BD881A8342F5D95B1A134496
:100C7C0020462B60FFF7D2FF0024F0E73000002065
:100C8C001C0000200122014B1A607047200000203C
:100C9C00F8B50446002837D0224DC36A2A68D26AB8
:100CAC00934236D28269204E002AA1BF2A68D26AAA
:100CBC00C2F105028261142202FB036342699A426B
:100CCC0023D1071D384600F0DEF8184930B901224F
:100CDC00E06A0B68824023EA02030B6001222B6856
:100CEC000868DB6A9A4002430A601422E3625343A9
:100CFC00F1184A689068A260E06047609760F2580B
:100D0C0061610132F2500120F8BD2B68DB6AC362CD
:100D1C00F9E72B68406CDB6A98422CBF002001205D
:100D2C00F2E700BF0C010020A80000202C000020DE
:100D3C00F8B5044608B90020F8BD836CC16A426C52
:100D4C00013B91428364F6D0002BF4D1051D28465B
:100D5C0000F099F8114A30B90121E06A136881401A
:100D6C0023EA010313600120636C1668C3F10501CB
:100D7C00A16100FA03F1314311601421E3624B438A
:100D8C00074AD61871688F68A160E7607D608D6036
:100D9C00D15866610144D150CEE700BF2C00002031
:100DAC00A8000020F8B50446002837D0436CC76A69
:100DBC00994238BF19468F4230D0836C012B2DD10C
:100DCC008369174D002B4FF0140303FB0753426943
:100DDC00C162A4BFC1F1050181619A421ED1061DF9
:100DEC00304600F050F80F4928B901220B68BA4080
:100DFC0023EA02030B600122E36A08689A4002436B
:100E0C000A6014225343E9184A689068A260E060B3
:100E1C0046609660EA5861610132EA50F8BD00BF45
:100E2C00A80000202C000020034B186810B1836C24
:100E3C0001338364704700BF0C0100204FF0FF3278
:100E4C0000F10803C0E9022343600361002303603F
:100E5C00704700230361704730B50C68631C0AD1DE
:100E6C0003695A684A6091608B6059600368086135
:100E7C000133036030BD00F1080213465268156857
:100E8C00A542FAD9EDE70369D0E901128A605160F5
:100E9C005968814208BF5A60002202611868013803
:100EAC001860704710B5044600F01EFAA46B00F0F1
:100EBC002BFAB4FA84F0400910BD70B51646026CDA
:100ECC000446856B42B906689EB98068FFF730FF0F
:100EDC00A6600135A56370BD6EB94068FFF750F987
:100EEC006368226C1344A2686360934224BF236836
:100EFC0063600020EDE7C068FFF742F9226CE368FD
:100F0C0051429B1A2268E36093423EBFA3685B1870
:100F1C00E360022EEDD10DB1013DEAE72846D8E79A
:100F2C0070B5044600F0E0F994F8455004F124063D
:100F3C006DB2002D01DD636AB3B9FF2384F845302F
:100F4C0000F0E2F900F0D0F994F8445004F11006E6
:100F5C006DB2002D01DD23697BB9FF2384F8443089
:100F6C00BDE8704000F0D0B93046FFF7FBFD08B18A
:100F7C00FFF788FE013D6DB2DBE73046FFF7F2FD6F
:100F8C0008B1FFF77FFE013D6DB2E2E770B50E468A
:100F9C00044610B3C06B00B3236CA3FB0035DDB962
:100FAC0000F0A2F9D4E90F314B432268A563D018A5
:100FBC005B1A62601A44FF23A06084F84430E2603C
:100FCC0084F8453056B104F11000FFF737FF04F1F7
:100FDC002400FFF733FF12E0002070BD236973B1CA
:100FEC0004F11000FFF7BEFD48B14FF0E0234FF0C5
:100FFC008052C3F8042DBFF34F8FBFF36F8F00F0F7
:10100C0083F90120E9E770B50D46064610B90024B6
:10101C00204670BDA1FB0023002BF8D1484310F1F2
:10102C00490FF4D8483000F0DDF904460028EED022
:10103C004DB100F1480301212046C4E90F6523603E
:10104C00FFF7A4FFE4E70346F5E72DE9FF4100278E
:10105C0004460E461D46B846019200F045F9A26BB7
:10106C00E36B9A421BD22A4631462046FFF725FFF6
:10107C00636A1BB104F12400FFF774FD48B14FF013
:10108C00E0234FF08052C3F8042DBFF34F8FBFF312
:10109C006F8F00F039F9012004B0BDE8F081022D0A
:1010AC00E1D0019B1BB900F02FF90020F4E717B930
:1010BC0002A8FFF7B3FD00F027F9FFF76BFB00F078
:1010CC0013F994F84430FF2B08BF84F8448094F84B
:1010DC004530FF2B08BF84F8458000F015F901A9B5
:1010EC0002A8FFF7A7FD38BB00F0FEF8A26BE36B7C
:1010FC009A420ED100F008F9019904F11000FFF7A3
:10110C0021FD2046FFF70CFFFFF710FC48B101272B
:10111C00A3E700F0F9F82046FFF702FFFFF706FC03
:10112C00F5E74FF0E0234FF08052C3F8042DBFF3E6
:10113C004F8FBFF36F8FEAE72046FFF7F1FEFFF703
:10114C00F5FBB2E7F0B5002504462F462E4685B0D8
:10115C00019100F0C9F8A36BE3B1013BA3632368D1
:10116C0013B9FFF761FEA060236973B104F110009D
:10117C00FFF7F8FC48B14FF0E0234FF08052C3F872
:10118C00042DBFF34F8FBFF36F8F00F0BDF801201C
:10119C0005B0F0BD019B1BB900F0B6F80020F7E7D5
:1011AC0017B902A8FFF73AFD00F0AEF8FFF7F2FA14
:1011BC0000F09AF894F84430FF2B08BF84F8446090
:1011CC0094F84530FF2B08BF84F8456000F09CF87C
:1011DC0001A902A8FFF72EFD50BB2046FFF762FEC7
:1011EC0000B323683BB900F07FF8A068FFF750FD0F
:1011FC00054600F089F8019904F12400FFF7A2FCE0
:10120C002046FFF78DFEFFF791FB48B94FF0E02326
:10121C004FF08052C3F8042DBFF34F8FBFF36F8F85
:10122C00012796E72046FFF77BFEFFF77FFBF7E7EA
:10123C002046FFF775FEFFF779FB2046FFF732FEDD
:10124C000028EDD0002DA9D000F04EF8616A19B13C
:10125C00236B1968C1F10501A068FFF7A3FD9BE79B
:10126C00002382B001934FF0500383F31188BFF336
:10127C006F8FBFF34F8F019B002BFCD002B07047D8
:10128C0006480068006880F3088862B661B6BFF350
:10129C004F8FBFF36F8F00DF00BF000008ED00E041
:1012AC004FF0807340F8043C054B21F0010140F8ED
:1012BC00081C40F80C3C40F8202C4038704700BF0C
:1012CC006D120008074B19680868B0E8F00F80F33E
:1012DC000988BFF36F8F4FF0000080F311884EF038
:1012EC000D0E70470C0100204FF0500383F3118852
:1012FC00BFF36F8FBFF34F8F024A13680133136034
:10130C00704700BF00000020034A1368013B1360C4
:10131C000BB983F31188704700000020EFF30980AC
:10132C00BFF36F8F0D4B1A6820E9F00F10602DE999
:10133C0008404FF0500080F31188FFF7B5FB4FF0D9
:10134C00000080F31188BDE8084019680868B0E80F
:10135C00F00F80F30988BFF36F8F70470C010020EA
:10136C0008B54FF0500383F31188BFF36F8FBFF3B1
:10137C004F8FFFF717FA28B14FF0E0234FF0805250
:10138C00C3F8042D002383F3118808BD4FF0E0232C
:10139C0000221A619A6141F63F725A6107221A6162
:1013AC00704700004FF0E02310B50024D3F8202D37
:1013BC0042F47F02C3F8202DD3F8202D42F07F4257
:1013CC00C3F8202DC3F81C4DFFF7E0FF044B1C6045
:1013DC00FFF756FFFFF768FBFFF742FF204610BDF3
:1013EC0000000020F8B5431E0A3363D810F0070341
:1013FC0000F1080405D0A3F10902A2425AD310301F
:10140C00C41A304DFFF7C6F92B68F3B92E4A2F4892
:10141C0053071FBFD11D21F0070102F5A052531A2B
:10142C000CBF4FF4A0530A4600211344083B23F091
:10143C00070341600260C3E90011991AC2E9003147
:10144C002B60234B1960234B1960002C37DD214E88
:10145C003168A14233D31D4A13685868A04201D2A7
:10146C001F684FBB2D689D4229D01568D3F800C06A
:10147C00001B102805F10805C2F800C005D91F197A
:10148C0078605C6043F804C0176058680A1A104909
:10149C0032600C6840F00040A24238BF0A60002263
:1014AC001A600D4A5860136801331360FFF73EFA57
:1014BC002846F8BD0024A4E71A463B46CDE7002594
:1014CC00F4E700BF200100202C01002024010020A3
:1014DC00180100201C0100201401002038B505461D
:1014EC0000283BD050F8043C002B37DA50F8082C7D
:1014FC00002A33D123F0004340F8043CA0F1080447
:10150C00FFF748F9164A55F8041C13680B4413608E
:10151C00144B1A461B689C42FBD850681518AC42F9
:10152C0002BF144609185160606821188B4213D110
:10153C000D4909688B4203D05968014461601968F0
:10154C00A242216018BF1460084A1368013313606B
:10155C00BDE83840FFF7EAB91946F1E738BD00BFDE
:10156C001C0100202401002020010020100100207B
:10157C000A480B490B4A914204D250F8043B41F8FB
:10158C00043BF8E70849094A0023914202D241F88A
:10159C00043BFAE7FEF7D6FEFEE70000E81500086C
:1015AC000000002004000020040000202C15002066
:1015BC00FEE754315F484947480054325F4C4F575F
:1015CC000054335F4D45440049444C450000000035
:0415DC000400000007
:0815E000ACEBFF7F01000000ED
:0415E800AAAAAAAA57
:040000050800157D5D
:00000001FF
