:020000040800F2
:1000000000500020FD0C00083D0D00083D0D0008CB
:100010003D0D00083D0D00083D0D000800000000EA
:10002000000000000000000000000000510A00086D
:100030003D0D000800000000A90A0008ED0A0008B4
:100040003D0D00083D0D00083D0D00083D0D000868
:100050003D0D00083D0D00083D0D00083D0D000858
:100060003D0D00083D0D00083D0D00083D0D000848
:100070003D0D00083D0D00083D0D00083D0D000838
:100080003D0D00083D0D00083D0D00083D0D000828
:100090003D0D00083D0D00083D0D00083D0D000818
:1000A0003D0D00083D0D00083D0D00083D0D000808
:1000B0003D0D00083D0D00083D0D00083D0D0008F8
:1000C0003D0D00083D0D00083D0D00083D0D0008E8
:1000D0003D0D00083D0D00083D0D00083D0D0008D8
:0C00E0003D0D00083D0D00083D0D00081E
:1000EC0070B5860747D0541E002A3ED00346CAB2CC
:1000FC0001E0013C39D303F8012B9D07F9D1032C06
:10010C002CD9CDB205EB05250F2C1A4605EB054570
:10011C0034D9A4F1100C2CF00F0603F1100EB644D8
:10012C004FEA1C1CC2E90055C2E902551032724557
:10013C00F8D10CF1010214F00C0F03EB021204F0D5
:10014C000F0C13D0ACF1040323F00303043313445A
:10015C0042F8045B9342FBD10CF003042CB1C9B2FE
:10016C001C4403F8011BA342FBD170BD644613462B
:10017C00002CF4D1F9E703461446C0E7A446E1E7A6
:10018C0008B5094CE3684FF4FA7083F00103E3609F
:10019C0000F08CFBE3684FF4FA7083F00103E3602A
:1001AC0000F084FBEEE700BF0008014008B5094CE5
:1001BC00E3684FF47A7083F00203E36000F076FB9F
:1001CC00E3684FF47A7083F00203E36000F06EFB97
:1001DC00EEE700BF000801400024012507B5184ACE
:1001EC0018499369184843F004039361174BD3F8EB
:1001FC00002822F0F002C3F80028D3F8002842F0BF
:10020C002002C3F80028D3F8002822F00F02C3F80C
:10021C000028D3F8002842F00202C3F80028234635
:10022C005A22CDE9005400F0B9F823465A22084965
:10023C00CDE90054074800F0B1F800F08FF9FEE763
:10024C00001002403E0D0008B901000800000140FA
:10025C00440D00088D010008FEE700002DE9F8436D
:10026C00224B234C1D68234B0646D3F80080224BAF
:10027C000F46D3F800902068043000F0A2FB40B980
:10028C0022681E49D06A01220B68824023EA0203CD
:10029C000B60731C14D19FB1194B21685A688A608A
:1002AC0090682168C860216804314160216804317C
:1002BC009160226853611A6801321A60BDE8F883B4
:1002CC0023682168AD195D6001F1040104D348462F
:1002DC00BDE8F84300F05EBB404600F05BFB094B09
:1002EC001A68AA4288BF1D60E8E700BF28000020FA
:1002FC000401002074000020700000202400002065
:10030C00300000200C000020064A13681968064BC8
:10031C0019B94FF0FF321A6070471268D268126830
:10032C00F9E700BF740000200C000020F8B50E4C5B
:10033C000E4F0F4E236803B9F8BD00F095FBFB6818
:10034C00DD68281D00F03DFB3368013B33602368FA
:10035C00013B236000F098FB286B00F07FFC2846E3
:10036C0000F07CFCE6E700BF4400002048000020C1
:10037C002C0000204FF0E0244FF0805508B5064EBD
:10038C00FFF7D4FF3368012BFAD9C4F8045DBFF32F
:10039C004F8FBFF36F8FF3E7A00000202DE9F047DC
:1003AC009600074630460D469846DDF8249000F03E
:1003BC00D9FB824618B94FF0FF30BDE8F0875420C6
:1003CC0000F0D0FB0446002800F09380542200215A
:1003DC00FFF786FE3246A5215046C4F830A0FFF741
:1003EC007FFE236B043E1E4426F007066DB16B1E88
:1003FC0004F133020F3513F8011F02F8011F09B184
:10040C00AB42F8D1002384F84330089D04F1040A70
:10041C00042D28BF04255046E562656400F0B7FA48
:10042C00C5F1050504F1180000F0B1FA4246394651
:10043C0030462461A561646200F0F2FA2060B9F1E3
:10044C00000F01D0C9F8004000F00EFB364B374EC0
:10045C001A68374F01321A603568002D4DD134605F
:10046C001B68012B1FD1B8464046013500F084FAB9
:10047C00052D08F11408F7D1DFF8B8802E4D404651
:10048C0000F07AFA284600F077FA2C4800F074FA5B
:10049C002B4800F071FA2B4800F06EFA2A4BC3F887
:1004AC0000802A4B1D602A4A2A49136808680133C8
:1004BC0013600122E36A9A4002430A6014225343F8
:1004CC00F9184A689068A260E060C0F804A0C2F80D
:1004DC0008A0FA5861610132FA5000F0D5FA1E4BAF
:1004EC001B6823B13368DA6AE36A9A4210D301209D
:1004FC0063E7504600F0B2FB5DE7174B1A68E36AFE
:10050C00002AD0D13268D26A9A4298BF3460CAE7C6
:10051C004FF0E0234FF08052C3F8042DBFF34F8F00
:10052C00BFF36F8FE3E700BF2C0000200401002015
:10053C00A00000208C000020780000205C0000202F
:10054C0048000020300000207400002070000020C3
:10055C0010000020240000202000002010B586B0E0
:10056C001022002102A8FFF7BBFD144A02AB12F8BF
:10057C00014B03F8014B002CF9D1114B5A22CDE958
:10058C0000431048234602A9FFF708FF012811D1A8
:10059C004FF0500383F31188BFF36F8FBFF34F8F6E
:1005AC004FF0FF32084B1A60084B1860084B1C6068
:1005BC0000F0B8FA074B1B6806B010BD4A0D0008D6
:1005CC0008000020810300080C00002020000020FF
:1005DC0028000020500D0008024A136801331360F4
:1005EC00704700BF040000202DE9F84F514B1B68E9
:1005FC00002B40F09880504B1C6801341C605CB997
:10060C004E4A4F4B1168186810604E4A19601368B7
:10061C0001331360FFF778FE4B4D00202B684B4ADB
:10062C009C42DFF82CC10FD21421DCF80030DB6ABD
:10063C004B43D358022B474B28BF01201B68002B80
:10064C0018BF0120BDE8F88F3C4F434E3B681B6838
:10065C001BB94FF0FF332B60E6E73B68DB68DB68C8
:10066C0059688C4201D22960DEE7D3F81480D3E9B3
:10067C000219C1F80890C9F80410D8F8041003F155
:10068C00040E71454FF0000108BFC8F80490596181
:10069C00D8F800100139C8F80010D3F82880B8F148
:1006AC00000F15D0D3E90719C1F80890C9F8041048
:1006BC00D8F8041003F1180A51454FF0000108BF97
:1006CC00C8F804909962D8F800100139C8F80010E5
:1006DC004FF00108D96AD6F8009008FA01F848EAF8
:1006EC000908C6F800804FF0140808FB01F802EB6B
:1006FC00080ADAF80490D9F808B0C3F80890C3F8DF
:10070C000CB0CBF804E0C9F808E0C3F814A052F818
:10071C000830013342F80830DCF80030DB6A9942CB
:10072C0088BF012092E70D4A002013680133136043
:10073C0088E700BF0400002028000020740000207F
:10074C0070000020140000200C000020A0000020ED
:10075C000401002018000020240000201C000020B0
:10076C002DE9F84F00F080F9484B1A68013A1A60ED
:10077C001B682BB1002400F087F92046BDE8F88FE8
:10078C00434A1268002AF5D0012514264148424CF0
:10079C00424A434FDFF80CC153E0C368DB68D3F81F
:1007AC0028E0D3E90718C1F80880C8F80410DEF86F
:1007BC00041003F1180949454FF0000108BFCEF8A9
:1007CC0004809962DEF800100139CEF80010D3F8DD
:1007DC0014E0D3E90218C1F80880C8F80410DEF858
:1007EC00041003F104094945DEF8001008BFCEF8E7
:1007FC0004800139CEF80010D3F82CE0D4F8008036
:10080C0005FA0EF141EA080106FB0EF802EB080AA4
:10081C002160DAF80410D1F808B09960C3F80CB074
:10082C00CBF80490C1F8089052F80810C3F814A043
:10083C00013142F808103968C96A8E4501D9CCF8E3
:10084C00005001680029A8D10BB1FFF75DFD164DD2
:10085C002C6844B10127134EFFF7C6FE00B1376078
:10086C00013CF9D12C600F4B1B68002B82D00C4B38
:10087C004FF080521B684FF0E023C3F8042DBFF3F8
:10088C004F8FBFF36F8F012475E700BF040000206A
:10089C002C0000205C00002024000020A000002080
:1008AC0004010020180000201C00002008B550B9DD
:1008BC004FF0E0234FF08052C3F8042DBFF34F8F5D
:1008CC00BFF36F8F08BD0021FFF786FEFFF7C6FC54
:1008DC00FFF746FF0028EBD0F4E70000214B70B582
:1008EC001A68214B12B101221A6070BD1F4C1A609C
:1008FC002368216822680968126B1B6B91420FD91F
:10090C001A68B2F1A53F0BD15A68B2F1A53F07D1D5
:10091C009A68B2F1A53F03D1DB68B3F1A53F04D0CF
:10092C00216820683431FFF797FC114B1B68B3FA30
:10093C0083F31425DBB2C3F11F0305FB03F20D494E
:10094C0088184668083276680A44964205FB0311FB
:10095C0008BFC268466008BF42604B68DB68236012
:10096C002368C2E7040000201800002004010020C6
:10097C0024000020A00000204FF0FF3200F10803FB
:10098C00C0E9022343600361002303607047002326
:10099C000361704730B50C68631C0AD103695A684F
:1009AC004A6091608B605960036808610133036091
:1009BC0030BD00F10802134652681568A542FAD9F9
:1009CC00EDE70369D0E901128A60516059688142F0
:1009DC0008BF5A600022026118680138186070471D
:1009EC00002382B001934FF0500383F31188BFF3BF
:1009FC006F8FBFF34F8F019B002BFCD002B0704761
:100A0C0006480068006880F3088862B661B6BFF3D8
:100A1C004F8FBFF36F8F00DF00BF000008ED00E0C9
:100A2C004FF0807340F8043C054B21F0010140F875
:100A3C00081C40F80C3C40F8202C4038704700BF94
:100A4C00ED090008074B19680868B0E8F00F80F34F
:100A5C000988BFF36F8F4FF0000080F311884EF0C0
:100A6C000D0E7047040100204FF0500383F31188E2
:100A7C00BFF36F8FBFF34F8F024A136801331360BC
:100A8C00704700BF00000020034A1368013B13604D
:100A9C000BB983F31188704700000020EFF3098035
:100AAC00BFF36F8F0D4B1A6820E9F00F10602DE922
:100ABC0008404FF0500080F31188FFF70FFF4FF004
:100ACC00000080F31188BDE8084019680868B0E898
:100ADC00F00F80F30988BFF36F8F7047040100207B
:100AEC0008B54FF0500383F31188BFF36F8FBFF33A
:100AFC004F8FFFF779FD28B14FF0E0234FF0805274
:100B0C00C3F8042D002383F3118808BD4FF0E023B4
:100B1C0000221A619A6141F63F725A6107221A61EA
:100B2C00704700004FF0E02310B50024D3F8202DBF
:100B3C0042F47F02C3F8202DD3F8202D42F07F42DF
:100B4C00C3F8202DC3F81C4DFFF7E0FF044B1C60CD
:100B5C00FFF756FFFFF7C2FEFFF742FF204610BD1E
:100B6C0000000020F8B5431E0A3363D810F00703C9
:100B7C0000F1080405D0A3F10902A2425AD31030A7
:100B8C00C41A304DFFF728FD2B68F3B92E4A2F48B5
:100B9C0053071FBFD11D21F0070102F58052531AD4
:100BAC000CBF4FF480530A4600211344083B23F03A
:100BBC00070341600260C3E90011991AC2E90031D0
:100BCC002B60234B1960234B1960002C37DD214E11
:100BDC003168A14233D31D4A13685868A04201D230
:100BEC001F684FBB2D689D4229D01568D3F800C0F3
:100BFC00001B102805F10805C2F800C005D91F1903
:100C0C0078605C6043F804C0176058680A1A104991
:100C1C0032600C6840F00040A24238BF0A600022EB
:100C2C001A600D4A5860136801331360FFF798FD82
:100C3C002846F8BD0024A4E71A463B46CDE700251C
:100C4C00F4E700BF18010020240100201C01002043
:100C5C0010010020140100200C01002038B50546BD
:100C6C0000283BD050F8043C002B37DA50F8082C05
:100C7C00002A33D123F0004340F8043CA0F10804CF
:100C8C00FFF7AAFC164A55F8041C13680B441360B2
:100C9C00144B1A461B689C42FBD850681518AC4282
:100CAC0002BF144609185160606821188B4213D199
:100CBC000D4909688B4203D0596801446160196879
:100CCC00A242216018BF1460084A136801331360F4
:100CDC00BDE83840FFF744BD1946F1E738BD00BF09
:100CEC00140100201C010020180100200801002024
:100CFC000A480B490B4A914204D250F8043B41F884
:100D0C00043BF8E70849094A0023914202D241F812
:100D1C00043BFAE7FFF760FAFEE70000540D000809
:100D2C0000000020040000200400002024110020FA
:100D3C00FEE77461736B31007461736B320049446C
:080D4C004C450000040000000A
:040D5400AAAAAAAAF3
:0400000508000CFDE6
:00000001FF
