:020000040800F2
:1000000000500020410C0008810C0008810C000801
:10001000810C0008810C0008810C00080000000021
:10002000000000000000000000000000950900082A
:10003000810C000800000000ED090008310A0008EA
:10004000810C0008810C0008810C0008810C00085C
:10005000810C0008810C0008810C0008810C00084C
:10006000810C0008810C0008810C0008810C00083C
:10007000810C0008810C0008810C0008810C00082C
:10008000810C0008810C0008810C0008810C00081C
:10009000810C0008810C0008810C0008810C00080C
:1000A000810C0008810C0008810C0008810C0008FC
:1000B000810C0008810C0008810C0008810C0008EC
:1000C000810C0008810C0008810C0008810C0008DC
:1000D000810C0008810C0008810C0008810C0008CC
:0C00E000810C0008810C0008810C000855
:1000EC0070B5860747D0541E002A3ED00346CAB2CC
:1000FC0001E0013C39D303F8012B9D07F9D1032C06
:10010C002CD9CDB205EB05250F2C1A4605EB054570
:10011C0034D9A4F1100C2CF00F0603F1100EB644D8
:10012C004FEA1C1CC2E90055C2E902551032724557
:10013C00F8D10CF1010214F00C0F03EB021204F0D5
:10014C000F0C13D0ACF1040323F00303043313445A
:10015C0042F8045B9342FBD10CF003042CB1C9B2FE
:10016C001C4403F8011BA342FBD170BD644613462B
:10017C00002CF4D1F9E703461446C0E7A446E1E7A6
:10018C0030B50124026806494368D56804FA03F3C4
:10019C006B40D3600B6896330D68AB42FCD8F3E729
:1001AC0004000020024A136801331360704700BF3B
:1001BC000400002007B52C4A01249369002543F064
:1001CC0014039361294B2A495A682A4822F4700275
:1001DC005A605A6842F400125A60A3F58053D3F85F
:1001EC00002822F00F02C3F80028D3F8002842F0B0
:1001FC000202C3F80028D3F8002822F0F002C3F85A
:10020C000028D3F8002842F02002C3F80028D3F8C5
:10021C00002822F47062C3F80028D3F8002842F4B6
:10022C000072C3F800285A22134BCDE9004500F0A8
:10023C007DF85A22114B1249CDE900450D4800F0CA
:10024C0075F85A220F4B1049CDE90045094800F0CA
:10025C006DF85A220D4B0E49CDE90045054800F0CA
:10026C0065F800F043F9FEE7001002400010014071
:10027C00820C00088D010008C80C0008BC0C00089A
:10028C00890C0008B00C0008900C0008A40C0008A5
:10029C00970C0008FEE70000064A13681968064B25
:1002AC0019B94FF0FF321A6070471268D2681268A1
:1002BC00F9E700BF7800002010000020F8B50E4CC4
:1002CC000E4F0F4E236803B9F8BD00F06FFBFB68AF
:1002DC00DD68281D00F016FB3368013B3360236892
:1002EC00013B236000F072FB286B00F059FC2846A0
:1002FC0000F056FCE6E700BF480000204C00002050
:10030C00300000204FF0E0244FF0805508B5064E29
:10031C00FFF7D4FF3368012BFAD9C4F8045DBFF39F
:10032C004F8FBFF36F8FF3E7A40000202DE9F04748
:10033C009600074630460D469846DDF8249000F0AE
:10034C00B3FB824618B94FF0FF30BDE8F08754205C
:10035C0000F0AAFB0446002800F0938054220021F0
:10036C00FFF7BEFE3246A5215046C4F830A0FFF779
:10037C00B7FE236B043E1E4426F007066DB16B1EC0
:10038C0004F133020F3513F8011F02F8011F09B1F4
:10039C00AB42F8D1002384F84330089D04F1040AE1
:1003AC00042D28BF04255046E562656400F0A7FAC9
:1003BC00C5F1050504F1180000F0A1FA42463946D2
:1003CC0030462461A561646200F0CCFA2060B9F17A
:1003DC00000F01D0C9F8004000F0E8FA364B374E58
:1003EC001A68374F01321A603568002D4DD13460D0
:1003FC001B68012B1FD1B8464046013500F074FA3A
:10040C00052D08F11408F7D1DFF8B8802E4D4046C1
:10041C0000F06AFA284600F067FA2C4800F064FAFB
:10042C002B4800F061FA2B4800F05EFA2A4BC3F817
:10043C0000802A4B1D602A4A2A4913680868013338
:10044C0013600122E36A9A4002430A601422534368
:10045C00F9184A689068A260E060C0F804A0C2F87D
:10046C0008A0FA5861610132FA5000F0AFFA1E4B45
:10047C001B6823B13368DA6AE36A9A4210D301200D
:10048C0063E7504600F08CFB5DE7174B1A68E36A94
:10049C00002AD0D13268D26A9A4298BF3460CAE737
:1004AC004FF0E0234FF08052C3F8042DBFF34F8F71
:1004BC00BFF36F8FE3E700BF30000020080100207E
:1004CC00A4000020900000207C0000206000002090
:1004DC004C00002034000020780000207400002024
:1004EC0014000020280000202400002010B586B045
:1004FC001022002102A8FFF7F3FD144A02AB12F8F8
:10050C00014B03F8014B002CF9D1114B5A22CDE9C8
:10051C0000431048234602A9FFF708FF012811D118
:10052C004FF0500383F31188BFF36F8FBFF34F8FDE
:10053C004FF0FF32084B1A60084B1860084B1C60D8
:10054C0000F092FA074B1B6806B010BD9E0C000819
:10055C000C000020110300081000002024000020D3
:10056C002C000020D40C0008024A136801331360DD
:10057C00704700BF080000202DE9F84F554B1B6851
:10058C00002B40F09E80544B18680130186058B90D
:10059C00524A534B11681C681460524A1960136814
:1005AC0001331360FFF778FE4F4D00242B684F4A40
:1005BC009842DFF83CC115D21421DCF80030DB6A1C
:1005CC004B43D358022B4B4B28BF01241B680BB950
:1005DC00FFF7E8FD484B1B68002B18BF0124204691
:1005EC00BDE8F88F3D4F454E3B681B681BB94FF07B
:1005FC00FF332B60E0E73B68DB68DB6859688842B7
:10060C0001D22960D8E7D3F81480D3E90219C1F8D4
:10061C000890C9F80410D8F8041003F1040E7145C1
:10062C004FF0000108BFC8F804905961D8F80010C9
:10063C000139C8F80010D3F82880B8F1000F15D094
:10064C00D3E90719C1F80890C9F80410D8F80410B8
:10065C0003F1180A51454FF0000108BFC8F8049087
:10066C009962D8F800100139C8F800104FF0010851
:10067C00D96AD6F8009008FA01F848EA0908C6F8D1
:10068C0000804FF0140808FB01F802EB080ADAF8B6
:10069C000490D9F808B0C3F80890C3F80CB0CBF8A4
:1006AC0004E0C9F808E0C3F814A052F8083001338C
:1006BC0042F80830DCF80030DB6A994288BF01242C
:1006CC0092E70C4A0024136801331360FFF76AFDAC
:1006DC0085E700BF080000202C00002078000020D7
:1006EC00740000201800002010000020A40000203E
:1006FC0008010020200000201C0000202800002001
:10070C002DE9F84F00F052F9484B1A68013A1A607B
:10071C001B682BB1002400F059F92046BDE8F88F76
:10072C00434A1268002AF5D0012514264148424C50
:10073C00424A434FDFF80CC153E0C368DB68D3F87F
:10074C0028E0D3E90718C1F80880C8F80410DEF8CF
:10075C00041003F1180949454FF0000108BFCEF809
:10076C0004809962DEF800100139CEF80010D3F83D
:10077C0014E0D3E90218C1F80880C8F80410DEF8B8
:10078C00041003F104094945DEF8001008BFCEF847
:10079C0004800139CEF80010D3F82CE0D4F8008096
:1007AC0005FA0EF141EA080106FB0EF802EB080A05
:1007BC002160DAF80410D1F808B09960C3F80CB0D5
:1007CC00CBF80490C1F8089052F80810C3F814A0A4
:1007DC00013142F808103968C96A8E4501D9CCF844
:1007EC00005001680029A8D10BB1FFF755FD164D3B
:1007FC002C6844B10127134EFFF7BEFE00B13760E1
:10080C00013CF9D12C600F4B1B68002B82D00C4B98
:10081C004FF080521B684FF0E023C3F8042DBFF358
:10082C004F8FBFF36F8F012475E700BF08000020C6
:10083C00300000206000002028000020A4000020D0
:10084C00080100201C00002020000020214B70B566
:10085C001A68214B12B101221A6070BD1F4C1A602C
:10086C002368216822680968126B1B6B91420FD9AF
:10087C001A68B2F1A53F0BD15A68B2F1A53F07D166
:10088C009A68B2F1A53F03D1DB68B3F1A53F04D060
:10089C00216820683431FFF7FDFC114B1B68B3FA5B
:1008AC0083F31425DBB2C3F11F0305FB03F20D49DF
:1008BC0088184668083276680A44964205FB03118C
:1008CC0008BFC268466008BF42604B68DB682360A3
:1008DC002368C2E7080000201C000020080100204B
:1008EC0028000020A40000204FF0FF3200F1080384
:1008FC00C0E90223436003610023036070470023B7
:10090C00036170470369D0E901128A60516059682C
:10091C00814208BF5A6000220261186801381860D1
:10092C007047002382B001934FF0500383F311887A
:10093C00BFF36F8FBFF34F8F019B002BFCD002B026
:10094C007047000006480068006880F3088862B6AB
:10095C0061B6BFF34F8FBFF36F8F00DF00BF000096
:10096C0008ED00E04FF0807340F8043C054B21F09B
:10097C00010140F8081C40F80C3C40F8202C403891
:10098C00704700BF2F090008074B19680868B0E8CA
:10099C00F00F80F30988BFF36F8F4FF0000080F3E6
:1009AC0011884EF00D0E7047080100204FF05003D7
:1009BC0083F31188BFF36F8FBFF34F8F024A136815
:1009CC0001331360704700BF00000020034A136816
:1009DC00013B13600BB983F31188704700000020B2
:1009EC00EFF30980BFF36F8F0D4B1A6820E9F00FFE
:1009FC0010602DE908404FF0500080F31188FFF78C
:100A0C0025FF4FF0000080F31188BDE808401968FD
:100A1C000868B0E8F00F80F30988BFF36F8F704758
:100A2C000801002008B54FF0500383F31188BFF381
:100A3C006F8FBFF34F8FFFF79FFD28B14FF0E0236F
:100A4C004FF08052C3F8042D002383F3118808BDA6
:100A5C004FF0E02300221A619A6141F63F725A610D
:100A6C0007221A61704700004FF0E02310B50024F4
:100A7C00D3F8202D42F47F02C3F8202DD3F8202D7B
:100A8C0042F07F42C3F8202DC3F81C4DFFF7E0FF66
:100A9C00044B1C60FFF756FFFFF7D8FEFFF741FF32
:100AAC00204610BD00000020F8B5431E0A3363D861
:100ABC0010F0070300F1080405D0A3F10902A242CB
:100ACC005AD31030C41A304DFFF74EFD2B68F3B9D2
:100ADC002E4A2F4853071FBFD11D21F0070102F5E5
:100AEC008052531A0CBF4FF480530A460021134412
:100AFC00083B23F0070341600260C3E90011991A17
:100B0C00C2E900312B60234B1960234B1960002C78
:100B1C0037DD214E3168A14233D31D4A1368586822
:100B2C00A04201D21F684FBB2D689D4229D0156889
:100B3C00D3F800C0001B102805F10805C2F800C04E
:100B4C0005D91F1978605C6043F804C017605868B9
:100B5C000A1A104932600C6840F00040A24238BFBB
:100B6C000A6000221A600D4A586013680133136042
:100B7C00FFF7C6FD2846F8BD0024A4E71A463B46FD
:100B8C00CDE70025F4E700BF1C0100202801002060
:100B9C002001002014010020180100201001002069
:100BAC0038B5054600283BD050F8043C002B37DA0A
:100BBC0050F8082C002A33D123F0004340F8043CB1
:100BCC00A0F10804FFF7D0FC164A55F8041C136872
:100BDC000B441360144B1A461B689C42FBD850689C
:100BEC001518AC4202BF14460918516060682118F0
:100BFC008B4213D10D4909688B4203D059680144CB
:100C0C0061601968A242216018BF1460084A136819
:100C1C0001331360BDE83840FFF772BD1946F1E7A8
:100C2C0038BD00BF18010020200100201C0100204D
:100C3C000C0100200A480B490B4A914204D250F88F
:100C4C00043B41F8043BF8E70849094A0023914268
:100C5C0002D241F8043BFAE7FFF7ACFAFEE70000DA
:100C6C00D80C000800000020040000200400002024
:100C7C0028110020FEE76C65645F3173006C6564BD
:100C8C005F3273006C65645F3373006C65645F3452
:100C9C00730049444C45000000080140020000006C
:100CAC002800000000080140010000001E000000A8
:100CBC000008014000000000F40100000010014099
:0C0CCC000D0000003200000004000000D9
:040CD800AAAAAAAA70
:0400000508000C41A2
:00000001FF
