:020000040800F2
:1000000000500020E91400082915000829150008EF
:10001000291500082915000829150008000000000E
:100020000000000000000000000000003D12000879
:10003000291500080000000095120008D9120008D8
:100040002915000829150008291500082915000898
:100050002915000829150008291500082915000888
:100060002915000829150008291500082915000878
:100070002915000829150008291500082915000868
:100080002915000829150008291500082915000858
:100090002915000829150008291500082915000848
:1000A0002915000829150008291500082915000838
:1000B0002915000829150008291500082915000828
:1000C0002915000829150008291500082915000818
:1000D0002915000829150008291500082915000808
:0C00E00029150008291500082915000842
:1000EC0070B5860747D0541E002A3ED00346CAB2CC
:1000FC0001E0013C39D303F8012B9D07F9D1032C06
:10010C002CD9CDB205EB05250F2C1A4605EB054570
:10011C0034D9A4F1100C2CF00F0603F1100EB644D8
:10012C004FEA1C1CC2E90055C2E902551032724557
:10013C00F8D10CF1010214F00C0F03EB021204F0D5
:10014C000F0C13D0ACF1040323F00303043313445A
:10015C0042F8045B9342FBD10CF003042CB1C9B2FE
:10016C001C4403F8011BA342FBD170BD644613462B
:10017C00002CF4D1F9E703461446C0E7A446E1E7A6
:10018C00844641EA000313F0030349D1403A23D3D8
:10019C000B6803604B6843608B688360CB68C360FB
:1001AC000B6903614B6943618B698361CB69C361E3
:1001BC000B6A03624B6A43628B6A8362CB6AC362CB
:1001CC000B6B03634B6B43638B6B8363CB6BC363B3
:1001DC0040304031403ADBD230320BD30B680360F5
:1001EC004B6843608B688360CB68C3601030103100
:1001FC00103AF3D20C3205D351F8043B40F8043BCF
:10020C00043AF9D2043208D0D2071CBF11F8013BD2
:10021C0000F8013B01D30B8803806046704700BF98
:10022C00082A13D38B07B1D010F00303AED0C3F15F
:10023C000403D21ADB071CBF11F8013B00F8013B89
:10024C00A4D331F8023B20F8023B9FE7043AD9D300
:10025C00013A11F8013B00F8013BF9D20B7803701D
:10026C004B7843708B7883706046704708B50F4DA0
:10027C000F4C4FF0FF31286800F01AFFE3684FF481
:10028C00FA7083F40053E36000F09AFBE3684FF4D8
:10029C00FA7083F40053E36000F092FB00232868AB
:1002AC001A46194600F075FEE3E700BF0400002073
:1002BC000010014008B50F4D0F4C4FF0FF3128686E
:1002CC0000F0F6FEE3684FF47A7083F40053E360B9
:1002DC0000F076FBE3684FF47A7083F40053E3602C
:1002EC0000F06EFB002328681A46194600F051FEF8
:1002FC00E3E700BF040000200010014007B5144ADA
:10030C0001209369002443F010039361114B0125E4
:10031C005A6822F470025A605A6842F400125A6009
:10032C0000F0B4FE0C4B5A2218600C492346CDE960
:10033C0000540B4800F0BCF823465A220949CDE979
:10034C000054094800F0B4F800F092F9FEE700BF41
:10035C000010024000100140040000202A15000883
:10036C00C10200083015000879020008FEE7000001
:10037C002DE9F843224B234C1D68234B0646D3F83A
:10038C000080224B0F46D3F800902068043000F018
:10039C001EFD40B922681E49D06A01220B688240BA
:1003AC0023EA02030B60731C14D19FB1194B216813
:1003BC005A688A6090682168C8602168043141607D
:1003CC00216804319160226853611A6801321A6005
:1003DC00BDE8F88323682168AD195D6001F1040163
:1003EC0004D34846BDE8F84300F0DABC404600F0C0
:1003FC00D7FC094B1A68AA4288BF1D60E8E700BF0A
:10040C002C0000200801002078000020740000203F
:10041C00280000203400002010000020064A136839
:10042C001968064B19B94FF0FF321A607047126801
:10043C00D2681268F9E700BF780000201000002095
:10044C00F8B50E4C0E4F0F4E236803B9F8BD00F0F3
:10045C0001FFFB68DD68281D00F0B9FC3368013B27
:10046C0033602368013B236000F004FF286B00F02D
:10047C00EBFF284600F0E8FFE6E700BF480000204D
:10048C004C000020300000204FF0E0244FF080554D
:10049C0008B5064EFFF7D4FF3368012BFAD9C4F820
:1004AC00045DBFF34F8FBFF36F8FF3E7A400002001
:1004BC002DE9F0479600074630460D469846DDF884
:1004CC00249000F045FF824618B94FF0FF30BDE88C
:1004DC00F087542000F03CFF0446002800F0938085
:1004EC0054220021FFF7FCFD3246A5215046C4F8EA
:1004FC0030A0FFF7F5FD236B043E1E4426F00706E3
:10050C006DB16B1E04F133020F3513F8011F02F8A5
:10051C00011F09B1AB42F8D1002384F84330089D88
:10052C0004F1040A042D28BF04255046E5626564D5
:10053C0000F033FCC5F1050504F1180000F02DFCAA
:10054C004246394630462461A561646200F05EFE85
:10055C002060B9F1000F01D0C9F8004000F07AFE1C
:10056C00364B374E1A68374F01321A603568002DFA
:10057C004DD134601B68012B1FD1B8464046013564
:10058C0000F000FC052D08F11408F7D1DFF8B88055
:10059C002E4D404600F0F6FB284600F0F3FB2C48AD
:1005AC0000F0F0FB2B4800F0EDFB2B4800F0EAFBD1
:1005BC002A4BC3F800802A4B1D602A4A2A4913682B
:1005CC000868013313600122E36A9A4002430A600F
:1005DC0014225343F9184A689068A260E060C0F88E
:1005EC0004A0C2F808A0FA5861610132FA5000F078
:1005FC0041FE1E4B1B6823B13368DA6AE36A9A42E8
:10060C0010D3012063E7504600F01EFF5DE7174B47
:10061C001A68E36A002AD0D13268D26A9A4298BF2B
:10062C003460CAE74FF0E0234FF08052C3F8042D3A
:10063C00BFF34F8FBFF36F8FE3E700BF3000002095
:10064C0008010020A4000020900000207C00002065
:10065C00600000204C0000203400002078000020B6
:10066C00740000201400002028000020240000202A
:10067C0010B586B01022002102A8FFF731FD144AF4
:10068C0002AB12F8014B03F8014B002CF9D1114BC2
:10069C005A22CDE900431048234602A9FFF708FF70
:1006AC00012811D14FF0500383F31188BFF36F8FE2
:1006BC00BFF34F8F4FF0FF32084B1A60084B186096
:1006CC00084B1C6000F024FE074B1B6806B010BDE5
:1006DC00361500080C0000209504000810000020BE
:1006EC00240000202C0000203C150008024A13684E
:1006FC0001331360704700BF080000202DE9F84F4C
:10070C00514B1B68002B40F09880504B1C680134F7
:10071C001C605CB94E4A4F4B1168186810604E4A09
:10072C001960136801331360FFF778FE4B4D0020FE
:10073C002B684B4A9C42DFF82CC10FD21421DCF8F9
:10074C000030DB6A4B43D358022B474B28BF0120A8
:10075C001B68002B18BF0120BDE8F88F3C4F434E9F
:10076C003B681B681BB94FF0FF332B60E6E73B6817
:10077C00DB68DB6859688C4201D22960DEE7D3F86C
:10078C001480D3E90219C1F80890C9F80410D8F8FC
:10079C00041003F1040E71454FF0000108BFC8F8B6
:1007AC0004905961D8F800100139C8F80010D3F83A
:1007BC002880B8F1000F15D0D3E90719C1F80890BB
:1007CC00C9F80410D8F8041003F1180A51454FF079
:1007DC00000108BFC8F804909962D8F800100139DC
:1007EC00C8F800104FF00108D96AD6F8009008FA42
:1007FC0001F848EA0908C6F800804FF0140808FB15
:10080C0001F802EB080ADAF80490D9F808B0C3F83A
:10081C000890C3F80CB0CBF804E0C9F808E0C3F8B2
:10082C0014A052F80830013342F80830DCF80030DC
:10083C00DB6A994288BF012092E70D4A00201368B9
:10084C000133136088E700BF080000202C00002053
:10085C0078000020740000201800002010000020F8
:10086C00A4000020080100201C000020280000200B
:10087C00200000202DE9F84F00F0ECFC484B1A68E2
:10088C00013A1A601B682BB1002400F0F3FC2046DF
:10089C00BDE8F88F434A1268002AF5D001251426CA
:1008AC004148424C424A434FDFF80CC153E0C36805
:1008BC00DB68D3F828E0D3E90718C1F80880C8F83A
:1008CC000410DEF8041003F1180949454FF000013B
:1008DC0008BFCEF804809962DEF800100139CEF81A
:1008EC000010D3F814E0D3E90218C1F80880C8F856
:1008FC000410DEF8041003F104094945DEF8001079
:10090C0008BFCEF804800139CEF80010D3F82CE0E3
:10091C00D4F8008005FA0EF141EA080106FB0EF846
:10092C0002EB080A2160DAF80410D1F808B09960DB
:10093C00C3F80CB0CBF80490C1F8089052F808102A
:10094C00C3F814A0013142F808103968C96A8E4501
:10095C0001D9CCF8005001680029A8D10BB1FFF7E0
:10096C005DFD164D2C6844B10127134EFFF7C6FEF2
:10097C0000B13760013CF9D12C600F4B1B68002B88
:10098C0082D00C4B4FF080521B684FF0E023C3F821
:10099C00042DBFF34F8FBFF36F8F012475E700BF9A
:1009AC0008000020300000206000002028000020FB
:1009BC00A4000020080100201C00002020000020C2
:1009CC0008B550B94FF0E0234FF08052C3F8042D16
:1009DC00BFF34F8FBFF36F8F08BD0021FFF786FE6B
:1009EC00FFF7C6FCFFF746FF0028EBD0F4E700004A
:1009FC00214B70B51A68214B12B101221A6070BDDF
:100A0C001F4C1A602368216822680968126B1B6BE3
:100A1C0091420FD91A68B2F1A53F0BD15A68B2F1C5
:100A2C00A53F07D19A68B2F1A53F03D1DB68B3F1BA
:100A3C00A53F04D0216820683431FFF797FC114B97
:100A4C001B68B3FA83F31425DBB2C3F11F0305FB58
:100A5C0003F20D4988184668083276680A449642B3
:100A6C0005FB031108BFC268466008BF42604B68B3
:100A7C00DB6823602368C2E7080000201C0000200C
:100A8C000801002028000020A400002010B50C460E
:100A9C00054B1968183100F083F92046BDE8104069
:100AAC000121FFF765BC00BF08010020C368F0B549
:100ABC00DB689A6AD3E9070181604860506803F1EA
:100ACC001804A04208BF51600021996211680139D5
:100ADC0011601E4AD96A1268002A2AD1D3E9024051
:100AEC005A69A060446054681D1DAC4208BF506038
:100AFC00106801381060012215488A4004682243AE
:100B0C00026014224A43134886187468A7689C60D4
:100B1C00DF607D60A5605E618358013383500E4BAE
:100B2C001B68DB6A994285BF01200C4B00201860C2
:100B3C00F0BD0B4A50688568D8611D626C6084609A
:100B4C009A62136801331360E9E700BF08000020C4
:100B5C0028000020A4000020080100201C00002018
:100B6C0060000020034B1B680360034B1B68436051
:100B7C00704700BF180000202C00002070B50D46F7
:100B8C00044600F067FB0F4B19682B685A1C17D0F2
:100B9C000D48266800686268864208D08A4206D8EA
:100BAC00002301242B6000F065FB204670BD881AE1
:100BBC008342F5D95B1A134420462B60FFF7D2FF12
:100BCC000024F0E72C000020180000200122014B2B
:100BDC001A6070471C000020F8B50446002837D076
:100BEC00224DC36A2A68D26A934236D28269204E59
:100BFC00002AA1BF2A68D26AC2F1050282611422BE
:100C0C0002FB036342699A4223D1071D384600F068
:100C1C00DEF8184930B90122E06A0B68824023EAF9
:100C2C0002030B6001222B680868DB6A9A400243BE
:100C3C000A601422E3625343F1184A689068A26078
:100C4C00E06047609760F25861610132F250012018
:100C5C00F8BD2B68DB6AC362F9E72B68406CDB6A72
:100C6C0098422CBF00200120F2E700BF08010020B1
:100C7C00A400002028000020F8B5044608B9002084
:100C8C00F8BD836CC16A426C013B91428364F6D01F
:100C9C00002BF4D1051D284600F099F8114A30B903
:100CAC000121E06A1368814023EA010313600120EB
:100CBC00636C1668C3F10501A16100FA03F13143BD
:100CCC0011601421E3624B43074AD61871688F6890
:100CDC00A160E7607D608D60D15866610144D150A0
:100CEC00CEE700BF28000020A4000020F8B5044681
:100CFC00002837D0436CC76A994238BF19468F42D7
:100D0C0030D0836C012B2DD18369174D002B4FF004
:100D1C00140303FB07534269C162A4BFC1F105016F
:100D2C0081619A421ED1061D304600F050F80F49E1
:100D3C0028B901220B68BA4023EA02030B60012296
:100D4C00E36A08689A4002430A6014225343E91884
:100D5C004A689068A260E06046609660EA586161FB
:100D6C000132EA50F8BD00BFA4000020280000208A
:100D7C00034B186810B1836C01338364704700BF58
:100D8C00080100204FF0FF3200F10803C0E90223F4
:100D9C0043600361002303607047002303617047C5
:100DAC0030B50C68631C0AD103695A684A609160BB
:100DBC008B605960036808610133036030BD00F13A
:100DCC000802134652681568A542FAD9EDE7036983
:100DDC00D0E901128A6051605968814208BF5A609B
:100DEC0000220261186801381860704710B504467B
:100DFC0000F030FAA46B00F03DFAB4FA84F040092C
:100E0C0010BD70B51646026C0446856B42B9066877
:100E1C009EB98068FFF730FFA6600135A56370BDF1
:100E2C006EB94068FFF7ACF96368226C1344A26892
:100E3C006360934224BF236863600020EDE7C068C1
:100E4C00FFF79EF9226CE36851429B1A2268E3601B
:100E5C0093423EBFA3685B18E360022EEDD10DB147
:100E6C00013DEAE72846D8E770B5044600F0F2F9F0
:100E7C0094F8455004F124066DB2002D01DD636A2F
:100E8C00B3B9FF2384F8453000F0F4F900F0E2F92F
:100E9C0094F8445004F110066DB2002D01DD236965
:100EAC007BB9FF2384F84430BDE8704000F0E2B910
:100EBC003046FFF7FBFD08B1FFF788FE013D6DB230
:100ECC00DBE73046FFF7F2FD08B1FFF77FFE013D8F
:100EDC006DB2E2E770B50E46044610B3C06B00B3BA
:100EEC00236CA3FB0035DDB900F0B4F9D4E90F3164
:100EFC004B432268A563D0185B1A62601A44FF2327
:100F0C00A06084F84430E26084F8453056B104F1B6
:100F1C001000FFF737FF04F12400FFF733FF12E056
:100F2C00002070BD236973B104F11000FFF7BEFD02
:100F3C0048B14FF0E0234FF08052C3F8042DBFF3BB
:100F4C004F8FBFF36F8F00F095F90120E9E770B573
:100F5C000D46064610B90024204670BDA1FB0023A7
:100F6C00002BF8D1484310F1490FF4D8483000F069
:100F7C00EFF904460028EED04DB100F148030121F1
:100F8C002046C4E90F652360FFF7A4FFE4E703469E
:100F9C00F5E72DE9FF41002704460E461D46B846ED
:100FAC00019200F057F9A26BE36B9A421BD22A46CE
:100FBC0031462046FFF725FF636A1BB104F124007C
:100FCC00FFF774FD48B14FF0E0234FF08052C3F8A7
:100FDC00042DBFF34F8FBFF36F8F00F04BF901203F
:100FEC0004B0BDE8F081022DE1D0019B1BB900F0EB
:100FFC0041F90020F4E717B902A8FFF7B3FD00F0A0
:10100C0039F9FFF773FB00F025F994F84430FF2B06
:10101C0008BF84F8448094F84530FF2B08BF84F84F
:10102C00458000F027F901A902A8FFF7A7FD38BBFE
:10103C0000F010F9A26BE36B9A420ED100F01AF992
:10104C00019904F11000FFF721FD2046FFF70CFF7A
:10105C00FFF710FC48B10127A3E700F00BF920467D
:10106C00FFF702FFFFF706FCF5E74FF0E0234FF028
:10107C008052C3F8042DBFF34F8FBFF36F8FEAE795
:10108C002046FFF7F1FEFFF7F5FBB2E7024610B57D
:10109C0000210120FFF75BFF044638B100231A46FC
:1010AC00194683600360C360FFF773FF204610BDD1
:1010BC00F0B5002504462F462E4685B0019100F070
:1010CC00C9F8A36BE3B1013BA363236813B9FFF722
:1010DC004FFEA060236973B104F11000FFF7E6FC2A
:1010EC0048B14FF0E0234FF08052C3F8042DBFF30A
:1010FC004F8FBFF36F8F00F0BDF8012005B0F0BD2E
:10110C00019B1BB900F0B6F80020F7E717B902A84D
:10111C00FFF728FD00F0AEF8FFF7E8FA00F09AF8B8
:10112C0094F84430FF2B08BF84F8446094F84530A1
:10113C00FF2B08BF84F8456000F09CF801A902A8B9
:10114C00FFF71CFD50BB2046FFF750FE00B3236891
:10115C003BB900F07FF8A068FFF73EFD054600F0B4
:10116C0089F8019904F12400FFF790FC2046FFF761
:10117C007BFEFFF77FFB48B94FF0E0234FF0805226
:10118C00C3F8042DBFF34F8FBFF36F8F012796E782
:10119C002046FFF769FEFFF76DFBF7E72046FFF7E8
:1011AC0063FEFFF767FB2046FFF720FE0028EDD01B
:1011BC00002DA9D000F04EF8616A19B1236B1968A3
:1011CC00C1F10501A068FFF791FD9BE7002382B0F8
:1011DC0001934FF0500383F31188BFF36F8FBFF36C
:1011EC004F8F019B002BFCD002B070470648006863
:1011FC00006880F3088862B661B6BFF34F8FBFF307
:10120C006F8F00DF00BF000008ED00E04FF080732F
:10121C0040F8043C054B21F0010140F8081C40F853
:10122C000C3C40F8202C4038704700BFD911000806
:10123C00074B19680868B0E8F00F80F30988BFF312
:10124C006F8F4FF0000080F311884EF00D0E704739
:10125C00080100204FF0500383F31188BFF36F8F08
:10126C00BFF34F8F024A136801331360704700BFFE
:10127C0000000020034A1368013B13600BB983F391
:10128C001188704700000020EFF30980BFF36F8FC7
:10129C000D4B1A6820E9F00F10602DE908404FF053
:1012AC00500080F31188FFF7A3FB4FF0000080F390
:1012BC001188BDE8084019680868B0E8F00F80F3A1
:1012CC000988BFF36F8F70470801002008B54FF0F5
:1012DC00500383F31188BFF36F8FBFF34F8FFFF76A
:1012EC000DFA28B14FF0E0234FF08052C3F8042DD3
:1012FC00002383F3118808BD4FF0E02300221A610C
:10130C009A6141F63F725A6107221A6170470000D8
:10131C004FF0E02310B50024D3F8202D42F47F02C7
:10132C00C3F8202DD3F8202D42F07F42C3F8202D96
:10133C00C3F81C4DFFF7E0FF044B1C60FFF756FF92
:10134C00FFF756FBFFF742FF204610BD00000020C0
:10135C00F8B5431E0A3363D810F0070300F10804F4
:10136C0005D0A3F10902A2425AD31030C41A304D51
:10137C00FFF7BCF92B68F3B92E4A2F4853071FBF50
:10138C00D11D21F0070102F58052531A0CBF4FF406
:10139C0080530A4600211344083B23F007034160A5
:1013AC000260C3E90011991AC2E900312B60234B8A
:1013BC001960234B1960002C37DD214E3168A14296
:1013CC0033D31D4A13685868A04201D21F684FBB23
:1013DC002D689D4229D01568D3F800C0001B102839
:1013EC0005F10805C2F800C005D91F1978605C60CA
:1013FC0043F804C0176058680A1A104932600C6828
:10140C0040F00040A24238BF0A6000221A600D4A28
:10141C005860136801331360FFF72CFA2846F8BDA7
:10142C000024A4E71A463B46CDE70025F4E700BFAD
:10143C001C010020280100202001002014010020A4
:10144C00180100201001002038B5054600283BD0BB
:10145C0050F8043C002B37DA50F8082C002A33D112
:10146C0023F0004340F8043CA0F10804FFF73EF9D8
:10147C00164A55F8041C13680B441360144B1A4697
:10148C001B689C42FBD850681518AC4202BF14462E
:10149C0009185160606821188B4213D10D490968F5
:1014AC008B4203D05968014461601968A2422160E3
:1014BC0018BF1460084A136801331360BDE8384044
:1014CC00FFF7D8B91946F1E738BD00BF1801002065
:1014DC00200100201C0100200C0100200A480B49AF
:1014EC000B4A914204D250F8043B41F8043BF8E714
:1014FC000849094A0023914202D241F8043BFAE719
:10150C00FEF7FCFEFEE70000481500080000002076
:10151C00040000200400002028110020FEE7746164
:10152C00736B31007461736B320049444C4500009D
:04153C0004000000A7
:081540004CECFF7F01000000EC
:04154800AAAAAAAAF7
:04000005080014E9F2
:00000001FF
